{
  "_format": "hh-sol-artifact-1",
  "contractName": "TipJar",
  "sourceName": "contracts/TipJar.sol",
  "abi": [
    {
      "inputs": [],
      "stateMutability": "nonpayable",
      "type": "constructor"
    },
    {
      "inputs": [
        {
          "internalType": "address",
          "name": "owner",
          "type": "address"
        }
      ],
      "name": "OwnableInvalidOwner",
      "type": "error"
    },
    {
      "inputs": [
        {
          "internalType": "address",
          "name": "account",
          "type": "address"
        }
      ],
      "name": "OwnableUnauthorizedAccount",
      "type": "error"
    },
    {
      "inputs": [],
      "name": "ReentrancyGuardReentrantCall",
      "type": "error"
    },
    {
      "anonymous": false,
      "inputs": [
        {
          "indexed": true,
          "internalType": "address",
          "name": "tipper",
          "type": "address"
        },
        {
          "indexed": false,
          "internalType": "uint256",
          "name": "newTotal",
          "type": "uint256"
        },
        {
          "indexed": false,
          "internalType": "uint8",
          "name": "rank",
          "type": "uint8"
        }
      ],
      "name": "LeaderboardUpdated",
      "type": "event"
    },
    {
      "anonymous": false,
      "inputs": [
        {
          "indexed": true,
          "internalType": "address",
          "name": "previousOwner",
          "type": "address"
        },
        {
          "indexed": true,
          "internalType": "address",
          "name": "newOwner",
          "type": "address"
        }
      ],
      "name": "OwnershipTransferred",
      "type": "event"
    },
    {
      "anonymous": false,
      "inputs": [
        {
          "indexed": true,
          "internalType": "address",
          "name": "tipper",
          "type": "address"
        },
        {
          "indexed": false,
          "internalType": "uint256",
          "name": "amount",
          "type": "uint256"
        },
        {
          "indexed": false,
          "internalType": "uint256",
          "name": "totalFromTipper",
          "type": "uint256"
        }
      ],
      "name": "TipReceived",
      "type": "event"
    },
    {
      "anonymous": false,
      "inputs": [
        {
          "indexed": true,
          "internalType": "address",
          "name": "owner",
          "type": "address"
        },
        {
          "indexed": false,
          "internalType": "uint256",
          "name": "amount",
          "type": "uint256"
        }
      ],
      "name": "Withdrawal",
      "type": "event"
    },
    {
      "inputs": [],
      "name": "getBalance",
      "outputs": [
        {
          "internalType": "uint256",
          "name": "",
          "type": "uint256"
        }
      ],
      "stateMutability": "view",
      "type": "function"
    },
    {
      "inputs": [],
      "name": "getLeaderboard",
      "outputs": [
        {
          "internalType": "address[10]",
          "name": "addresses",
          "type": "address[10]"
        },
        {
          "internalType": "uint256[10]",
          "name": "amounts",
          "type": "uint256[10]"
        }
      ],
      "stateMutability": "view",
      "type": "function"
    },
    {
      "inputs": [
        {
          "internalType": "address",
          "name": "tipper",
          "type": "address"
        }
      ],
      "name": "getRank",
      "outputs": [
        {
          "internalType": "uint8",
          "name": "rank",
          "type": "uint8"
        }
      ],
      "stateMutability": "view",
      "type": "function"
    },
    {
      "inputs": [
        {
          "internalType": "uint256",
          "name": "offset",
          "type": "uint256"
        },
        {
          "internalType": "uint256",
          "name": "limit",
          "type": "uint256"
        }
      ],
      "name": "getTippers",
      "outputs": [
        {
          "internalType": "address[]",
          "name": "tipperList",
          "type": "address[]"
        },
        {
          "internalType": "uint256[]",
          "name": "amounts",
          "type": "uint256[]"
        }
      ],
      "stateMutability": "view",
      "type": "function"
    },
    {
      "inputs": [
        {
          "internalType": "address",
          "name": "",
          "type": "address"
        }
      ],
      "name": "hasTipped",
      "outputs": [
        {
          "internalType": "bool",
          "name": "",
          "type": "bool"
        }
      ],
      "stateMutability": "view",
      "type": "function"
    },
    {
      "inputs": [
        {
          "internalType": "uint256",
          "name": "",
          "type": "uint256"
        }
      ],
      "name": "leaderboard",
      "outputs": [
        {
          "internalType": "address",
          "name": "",
          "type": "address"
        }
      ],
      "stateMutability": "view",
      "type": "function"
    },
    {
      "inputs": [],
      "name": "owner",
      "outputs": [
        {
          "internalType": "address",
          "name": "",
          "type": "address"
        }
      ],
      "stateMutability": "view",
      "type": "function"
    },
    {
      "inputs": [],
      "name": "renounceOwnership",
      "outputs": [],
      "stateMutability": "nonpayable",
      "type": "function"
    },
    {
      "inputs": [],
      "name": "tip",
      "outputs": [],
      "stateMutability": "payable",
      "type": "function"
    },
    {
      "inputs": [
        {
          "internalType": "string",
          "name": "message",
          "type": "string"
        }
      ],
      "name": "tipWithMessage",
      "outputs": [],
      "stateMutability": "payable",
      "type": "function"
    },
    {
      "inputs": [
        {
          "internalType": "uint256",
          "name": "",
          "type": "uint256"
        }
      ],
      "name": "tippers",
      "outputs": [
        {
          "internalType": "address",
          "name": "",
          "type": "address"
        }
      ],
      "stateMutability": "view",
      "type": "function"
    },
    {
      "inputs": [
        {
          "internalType": "address",
          "name": "",
          "type": "address"
        }
      ],
      "name": "tipsByAddress",
      "outputs": [
        {
          "internalType": "uint256",
          "name": "",
          "type": "uint256"
        }
      ],
      "stateMutability": "view",
      "type": "function"
    },
    {
      "inputs": [],
      "name": "totalTips",
      "outputs": [
        {
          "internalType": "uint256",
          "name": "",
          "type": "uint256"
        }
      ],
      "stateMutability": "view",
      "type": "function"
    },
    {
      "inputs": [
        {
          "internalType": "address",
          "name": "newOwner",
          "type": "address"
        }
      ],
      "name": "transferOwnership",
      "outputs": [],
      "stateMutability": "nonpayable",
      "type": "function"
    },
    {
      "inputs": [],
      "name": "uniqueTippers",
      "outputs": [
        {
          "internalType": "uint256",
          "name": "",
          "type": "uint256"
        }
      ],
      "stateMutability": "view",
      "type": "function"
    },
    {
      "inputs": [],
      "name": "withdraw",
      "outputs": [],
      "stateMutability": "nonpayable",
      "type": "function"
    },
    {
      "inputs": [
        {
          "internalType": "uint256",
          "name": "amount",
          "type": "uint256"
        }
      ],
      "name": "withdrawAmount",
      "outputs": [],
      "stateMutability": "nonpayable",
      "type": "function"
    },
    {
      "stateMutability": "payable",
      "type": "receive"
    }
  ],
  "bytecode": "0x608060405234801561001057600080fd5b50338061003757604051631e4fbdf760e01b81526000600482015260240160405180910390fd5b6100408161004a565b506001805561009a565b600080546001600160a01b038381166001600160a01b0319831681178455604051919092169283917f8be0079c531659141344cd1fd0a4f28419497f9722a3daafe3b4186f6b6457e09190a35050565b611430806100a96000396000f3fe6080604052600436106101025760003560e01c806351296b221161009557806377b433db1161006457806377b433db146103c65780638da5cb5b146103f4578063990de8ae14610412578063bf36839914610428578063f2fde38b1461044857600080fd5b806351296b2214610349578063548c0ef41461035c5780636d763a6e1461038e578063715018a6146103b157600080fd5b80632755cd2d116100d15780632755cd2d146102b457806327ad1bd8146102bc5780632f13c8be146102f45780633ccfd60b1461033457600080fd5b80630562b9f71461022b5780630b074fda1461024b57806312065fe0146102745780632547334c1461028757600080fd5b36610226573415610224573360009081526006602052604090205460ff1661019457336000818152600660205260408120805460ff1916600190811790915560058054918201815582527f036b6384b5eca791c62761152d0c79bb0604c104a5fb6f4eb0703f3154bb3db00180546001600160a01b031916909217909155600380549161018e83611179565b91905055505b33600090815260046020526040812080543492906101b3908490611192565b9250508190555034600260008282546101cc9190611192565b909155506101db905033610468565b33600081815260046020908152604091829020548251348152918201527f0c8883551f91e2ad37ae4c2a10d6e17258f93e629cb32666a8d1c46433c24ac2910160405180910390a25b005b600080fd5b34801561023757600080fd5b506102246102463660046111ab565b610767565b34801561025757600080fd5b5061026160035481565b6040519081526020015b60405180910390f35b34801561028057600080fd5b5047610261565b34801561029357600080fd5b506102616102a23660046111c4565b60046020526000908152604090205481565b610224610905565b3480156102c857600080fd5b506102dc6102d73660046111ab565b610a7e565b6040516001600160a01b03909116815260200161026b565b34801561030057600080fd5b5061032461030f3660046111c4565b60066020526000908152604090205460ff1681565b604051901515815260200161026b565b34801561034057600080fd5b50610224610aa8565b6102246103573660046111ed565b610bef565b34801561036857600080fd5b5061037c6103773660046111c4565b610d6a565b60405160ff909116815260200161026b565b34801561039a57600080fd5b506103a3610dcd565b60405161026b92919061125f565b3480156103bd57600080fd5b50610224610e92565b3480156103d257600080fd5b506103e66103e13660046112c6565b610ea4565b60405161026b9291906112e8565b34801561040057600080fd5b506000546001600160a01b03166102dc565b34801561041e57600080fd5b5061026160025481565b34801561043457600080fd5b506102dc6104433660046111ab565b611042565b34801561045457600080fd5b506102246104633660046111c4565b611062565b6001600160a01b03811660009081526004602052604081205490600019905b600a8160ff1610156104d357836001600160a01b031660078260ff16600a81106104b3576104b361136c565b01546001600160a01b0316036104cb578091506104d3565b600101610487565b5060001960005b600a8160ff161015610533576004600060078360ff16600a81106105005761050061136c565b01546001600160a01b0316815260208101919091526040016000205484111561052b57809150610533565b6001016104da565b508160000b60001914801561054c57508060000b600019145b156105575750505050565b8060000b8260000b036105bb576001600160a01b0384167fc03e339c438b05acac8d46f2f765a1595847d22536ea83eded5c91469db976488461059b846001611382565b6040805192835260ff90911660208301520160405180910390a250505050565b8060000b600019141580156105e357508160000b60001914806105e357508160000b8160000b125b15610761578160000b6000191461067c57815b60098160ff16101561066a57600761060f826001611382565b60ff16600a81106106225761062261136c565b01546001600160a01b0316600760ff8316600a81106106435761064361136c565b0180546001600160a01b0319166001600160a01b03929092169190911790556001016105f6565b50601080546001600160a01b03191690555b60095b8160ff168160ff1611156106ff57600761069a60018361139b565b60ff16600a81106106ad576106ad61136c565b01546001600160a01b0316600760ff8316600a81106106ce576106ce61136c565b0180546001600160a01b0319166001600160a01b0392909216919091179055806106f7816113b4565b91505061067f565b508360078260ff16600a81106107175761071761136c565b0180546001600160a01b0319166001600160a01b0392831617905584167fc03e339c438b05acac8d46f2f765a1595847d22536ea83eded5c91469db976488461059b846001611382565b50505050565b61076f61109d565b6107776110ca565b600081116107cc5760405162461bcd60e51b815260206004820152601d60248201527f416d6f756e74206d7573742062652067726561746572207468616e203000000060448201526064015b60405180910390fd5b478111156108135760405162461bcd60e51b8152602060048201526014602482015273496e73756666696369656e742062616c616e636560601b60448201526064016107c3565b600080546040516001600160a01b039091169083908381818185875af1925050503d8060008114610860576040519150601f19603f3d011682016040523d82523d6000602084013e610865565b606091505b50509050806108aa5760405162461bcd60e51b815260206004820152601160248201527015da5d1a191c985dd85b0819985a5b1959607a1b60448201526064016107c3565b6000546001600160a01b03166001600160a01b03167f7fcf532c15f0a6db0bd6d0e038bea71d30d808c7d98cb3bf7268a95bf5081b65836040516108f091815260200190565b60405180910390a25061090260018055565b50565b61090d6110ca565b6000341161095d5760405162461bcd60e51b815260206004820152601a60248201527f546970206d7573742062652067726561746572207468616e203000000000000060448201526064016107c3565b3360009081526006602052604090205460ff166109e457336000818152600660205260408120805460ff1916600190811790915560058054918201815582527f036b6384b5eca791c62761152d0c79bb0604c104a5fb6f4eb0703f3154bb3db00180546001600160a01b03191690921790915560038054916109de83611179565b91905055505b3360009081526004602052604081208054349290610a03908490611192565b925050819055503460026000828254610a1c9190611192565b90915550610a2b905033610468565b33600081815260046020908152604091829020548251348152918201527f0c8883551f91e2ad37ae4c2a10d6e17258f93e629cb32666a8d1c46433c24ac2910160405180910390a2610a7c60018055565b565b60058181548110610a8e57600080fd5b6000918252602090912001546001600160a01b0316905081565b610ab061109d565b610ab86110ca565b4780610aff5760405162461bcd60e51b81526020600482015260166024820152754e6f2062616c616e636520746f20776974686472617760501b60448201526064016107c3565b600080546040516001600160a01b039091169083908381818185875af1925050503d8060008114610b4c576040519150601f19603f3d011682016040523d82523d6000602084013e610b51565b606091505b5050905080610b965760405162461bcd60e51b815260206004820152601160248201527015da5d1a191c985dd85b0819985a5b1959607a1b60448201526064016107c3565b6000546001600160a01b03166001600160a01b03167f7fcf532c15f0a6db0bd6d0e038bea71d30d808c7d98cb3bf7268a95bf5081b6583604051610bdc91815260200190565b60405180910390a25050610a7c60018055565b610bf76110ca565b60003411610c475760405162461bcd60e51b815260206004820152601a60248201527f546970206d7573742062652067726561746572207468616e203000000000000060448201526064016107c3565b3360009081526006602052604090205460ff16610cce57336000818152600660205260408120805460ff1916600190811790915560058054918201815582527f036b6384b5eca791c62761152d0c79bb0604c104a5fb6f4eb0703f3154bb3db00180546001600160a01b0319169092179091556003805491610cc883611179565b91905055505b3360009081526004602052604081208054349290610ced908490611192565b925050819055503460026000828254610d069190611192565b90915550610d15905033610468565b33600081815260046020908152604091829020548251348152918201527f0c8883551f91e2ad37ae4c2a10d6e17258f93e629cb32666a8d1c46433c24ac2910160405180910390a2610d6660018055565b5050565b6000805b600a8160ff161015610dc457826001600160a01b031660078260ff16600a8110610d9a57610d9a61136c565b01546001600160a01b031603610dbc57610db5816001611382565b9392505050565b600101610d6e565b50600092915050565b610dd5611144565b610ddd611144565b60005b600a8160ff161015610e8d5760078160ff16600a8110610e0257610e0261136c565b01546001600160a01b03168360ff8316600a8110610e2257610e2261136c565b6001600160a01b03909216602092909202015260046000600760ff8416600a8110610e4f57610e4f61136c565b01546001600160a01b031681526020810191909152604001600020548260ff8316600a8110610e8057610e8061136c565b6020020152600101610de0565b509091565b610e9a61109d565b610a7c60006110f4565b6060806000610eb38486611192565b600554909150811115610ec557506005545b6000610ed186836113d1565b90508067ffffffffffffffff811115610eec57610eec6113e4565b604051908082528060200260200182016040528015610f15578160200160208202803683370190505b5093508067ffffffffffffffff811115610f3157610f316113e4565b604051908082528060200260200182016040528015610f5a578160200160208202803683370190505b50925060005b81811015611038576005610f748289611192565b81548110610f8457610f8461136c565b9060005260206000200160009054906101000a90046001600160a01b0316858281518110610fb457610fb461136c565b6001600160a01b0390921660209283029190910190910152600460006005610fdc848b611192565b81548110610fec57610fec61136c565b60009182526020808320909101546001600160a01b0316835282019290925260400190205484518590839081106110255761102561136c565b6020908102919091010152600101610f60565b5050509250929050565b600781600a811061105257600080fd5b01546001600160a01b0316905081565b61106a61109d565b6001600160a01b03811661109457604051631e4fbdf760e01b8152600060048201526024016107c3565b610902816110f4565b6000546001600160a01b03163314610a7c5760405163118cdaa760e01b81523360048201526024016107c3565b6002600154036110ed57604051633ee5aeb560e01b815260040160405180910390fd5b6002600155565b600080546001600160a01b038381166001600160a01b0319831681178455604051919092169283917f8be0079c531659141344cd1fd0a4f28419497f9722a3daafe3b4186f6b6457e09190a35050565b604051806101400160405280600a906020820280368337509192915050565b634e487b7160e01b600052601160045260246000fd5b60006001820161118b5761118b611163565b5060010190565b808201808211156111a5576111a5611163565b92915050565b6000602082840312156111bd57600080fd5b5035919050565b6000602082840312156111d657600080fd5b81356001600160a01b0381168114610db557600080fd5b6000806020838503121561120057600080fd5b823567ffffffffffffffff8082111561121857600080fd5b818501915085601f83011261122c57600080fd5b81358181111561123b57600080fd5b86602082850101111561124d57600080fd5b60209290920196919550909350505050565b6102808101818460005b600a8110156112915781516001600160a01b0316835260209283019290910190600101611269565b50505061014082018360005b600a8110156112bc57815183526020928301929091019060010161129d565b5050509392505050565b600080604083850312156112d957600080fd5b50508035926020909101359150565b604080825283519082018190526000906020906060840190828701845b8281101561132a5781516001600160a01b031684529284019290840190600101611305565b5050508381038285015284518082528583019183019060005b8181101561135f57835183529284019291840191600101611343565b5090979650505050505050565b634e487b7160e01b600052603260045260246000fd5b60ff81811683821601908111156111a5576111a5611163565b60ff82811682821603908111156111a5576111a5611163565b600060ff8216806113c7576113c7611163565b6000190192915050565b818103818111156111a5576111a5611163565b634e487b7160e01b600052604160045260246000fdfea2646970667358221220f4c80ecd14b3fdb6bef2cc07e27457520d67a55121cc03f656c84373355074b864736f6c63430008180033",
  "linkReferences": {},
  "deployedLinkReferences": {}
}